:020000040800F2
:1000000000500020D1010008150200081502000868
:100010001502000815020008150200080000000083
:1000200000000000000000000000000015020008B1
:100030001502000800000000150200081502000863
:100040001502000815020008150200081502000834
:100050001502000815020008150200081502000824
:100060001502000815020008150200081502000814
:100070001502000815020008150200081502000804
:100080001502000815020008150200080000000013
:100090000000000000000000000000001502000841
:1000A00015020008150200081502000815020008D4
:1000B00015020008150200081502000815020008C4
:1000C00015020008150200081502000815020008B4
:1000D00015020008150200081502000815020008A4
:1000E00015020008150200081502000800000000B3
:1000F0000000000000000000000000000000000000
:1001000000000000000000000000000000000000EF
:1001100000000000000000001502000815020008A1
:1001200000000000000000000000000000000000CF
:1001300000000000000000000000000000000000BF
:1001400000000000000000000000000000000000AF
:10015000000000000000000000000000000000009F
:10016000000000000000000000000000000000008F
:10017000000000000000000000000000000000007F
:10018000000000000000000000000000000000006F
:10019000000000000000000000000000000000005F
:1001A000000000000000000000000000000000004F
:1001B000000000000000000000000000000000003F
:1001C0000000000000000000000000005FF808F1DF
:1001D000002103E00A4B5B584350043109480A4BA5
:1001E00042189A42F6D3094A02E0002342F8043B3F
:1001F000074B9A42F9D300F03BF800F017F870472C
:10020000A4090008000000200400002004000020D1
:1002100004000020FEE782B00190019B0BB902B000
:100220007047019B013B0193F7E7000007B50121EF
:10023000102000F0DBF90B4B0B4801A9019300F0F3
:10024000C0FA4FF40051084800F027FB0748FFF7B9
:10025000E2FF4FF40051044800F01DFB0348FFF794
:10026000DAFFEEE7002003100010014080841E003A
:10027000304B82B01A6842F001021A6059682E4A67
:100280000A405A601A6822F0847222F480321A609E
:100290001A6822F480221A605A6822F4FE025A6018
:1002A0004FF41F029A600022DA62009201921A68EB
:1002B00042F480321A601A6802F400320192009A05
:1002C00001320092019A1AB9009AB2F5A06FF2D1E8
:1002D0001A6812F4003218BF01220192019A012A11
:1002E00021D15A685A605A685A605A685A605A68E6
:1002F00022F47C125A605A6842F498125A601A68C2
:1003000042F080721A601A689201FCD55A6822F095
:1003100003025A605A6842F002025A605A6802F0B8
:100320000C02082AFAD14FF00062044B9A6002B026
:10033000704700BF001002400000FFF800ED00E031
:10034000104A536803F00C03082B19D15368516805
:10035000C3F38343C90341BFD16A0B4801F00F01C6
:1003600001314CBFB0FBF1F1084902334B435268F5
:100370000749C2F303128A5CD340064A13607047F0
:10038000014BF4E70010024000127A0000093D0022
:1003900080090008000000200E4B1A6842F001029C
:1003A0001A6059680C4A0A405A601A6822F084722E
:1003B00022F480321A601A6822F480221A605A6885
:1003C00022F4FE025A604FF41F029A600022DA62A1
:1003D000704700BF001002400000FFF80C4BB0F562
:1003E000803F1A6822F480321A601A6822F4802250
:1003F0001A6003D0B0F5802F05D070471A6842F418
:1004000080321A6070471A6842F4A022F9E700BFF0
:1004100000100240034A136823F0F80343EAC003C4
:100420001360704700100240014B1860704700BF16
:1004300000004242034A536823F474130B431843E9
:100440005060704700100240014B1866704700BFB3
:1004500000004242044AD36A23F4803323F00F039E
:100460000B431843D062704700100240034A5368A0
:1004700023F0030303435360704700BF00100240A2
:10048000024B586800F00C00704700BF001002409B
:10049000034A536823F0F00303435360704700BFDF
:1004A00000100240034A536823F4E063034353609F
:1004B000704700BF00100240034A536823F46053A2
:1004C00043EAC0035360704700100240044B5A7A5D
:1004D00011B102435A72704722EA0002FAE700BFE4
:1004E00000100240014BC3F8D800704700004242A0
:1004F000034A536823F4404303435360704700BFEB
:10050000001002400022084B012883F8202083F8C5
:10051000202002D0042803D0704783F820007047C1
:10052000052283F82020704700100240014BC3F8D9
:100530008004704700004242024A136A0343136278
:10054000704700BF00100240014BC3F83C047047E5
:10055000000042421B4A10B5536803F00C03082BFD
:100560002ED153685168C3F38343C90341BFD16A95
:10057000154C01F00F0101314CBFB4FBF1F11349EF
:1005800002334B43036054681149C4F303140C5DF8
:10059000E34043605468C4F302240C5D23FA04F47E
:1005A00084605468C4F3C2240C5DE340C3605268A5
:1005B000C2F3813211440A7CB3FBF2F3036110BD34
:1005C000014BDFE70010024000127A0000093D00F5
:1005D00090090008044B5A6911B102435A617047EF
:1005E00022EA0002FAE700BF00100240044B9A69B9
:1005F00011B102439A61704722EA0002FAE700BF94
:1006000000100240044BDA6911B10243DA6170470D
:1006100022EA0002FAE700BF00100240044BDA6849
:1006200011B10243DA60704722EA0002FAE700BF24
:1006300000100240044B1A6911B102431A6170475D
:1006400022EA0002FAE700BF00100240014BC3F8A3
:100650004004704700004242014BD864704700BF1D
:1006600000004242014BD871704700BF00100240A9
:100670004209012A074B07D11B6800F01F0023FA2B
:1006800000F000F001007047022A0CBF1B6A5B6A91
:10069000F3E700BF00100240002307B501933120AB
:1006A000FFF7E6FF019B01330193019BB3F5A06FB8
:1006B00001D00028F3D0312003B05DF804EBFFF740
:1006C000D7BF034A536A43F080735362704700BF39
:1006D00000100240034B9B68184214BF0120002009
:1006E000704700BF00100240014B9872704700BF76
:1006F0000010024008B5264B984209D10121042080
:10070000FFF78CFF00210420BDE80840FFF786BFFB
:10071000204B984206D101210820FFF77FFF0021DE
:100720000820F1E71C4B984206D101211020FFF769
:1007300075FF00211020E7E7184B984206D10121F0
:100740002020FFF76BFF00212020DDE7144B9842AB
:1007500006D101214020FFF761FF00214020D3E7AF
:10076000104B984206D101218020FFF757FF00214E
:100770008020C9E70C4B984208D101214FF48070CA
:10078000FFF74CFF00214FF48070BDE708BD00BFAC
:1007900000080140000C014000100140001401401D
:1007A00000180140001C014000200140012108B553
:1007B0000846FFF733FFBDE8084000210120FFF79E
:1007C0002DBF2DE9F041CB780F88DA0648BF8A7833
:1007D00003F00F0548BF15430A78D2B100214FF04E
:1007E000010C4FF00F0E02680CFA01F636EA07040E
:1007F0000BD18C000EFA04F822EA080205FA04F480
:10080000282B42EA040225D1466101310829EBD1A7
:100810000260FF2F1CD900214FF0010C4FF00F0E8A
:10082000426801F108040CFA04F434EA07060BD11B
:100830008E000EFA06F822EA080205FA06F6282BC0
:1008400042EA06020AD1446101310829E9D1426035
:10085000BDE8F081482B08BF0661D6E7482B08BFEA
:100860000461F1E74FF6FF73038040F202434380D7
:1008700070478368194214BF0120002070478068C8
:1008800080B27047C368194214BF0120002070472E
:10089000C06880B2704701617047416170470AB11A
:1008A0000161704741617047C160704741F4803316
:1008B000836181618361836983697047054A136835
:1008C00023F07F031B041B0C0B4343EA001313604C
:1008D000704700BF00000140014BD861704700BF66
:1008E00000002042002830B5164C00F44015B4BF7B
:1008F000E3696368B5F5401F82B212D1656823F0E1
:10090000706325F070656560440D2401A2401A43B0
:10091000002918BF13460B4A0028B4BFD3615360A7
:1009200030BDC4024DBF0324440D2401C0F3034570
:100930004CBFAC4002FA04F423EA040343F07063B2
:10094000E2E700BF0000014010B50F2401F00303EF
:1009500001F0FC0101F1804101F580318A689B00C2
:100960009C4022EA04028A608A68984010438860AA
:1009700010BD024BC3F8DC00704700BF00002042EE
:10098000000000000000000001020304060708093F
:100990000000000001020304010203040607080925
:0409A000020406083F
:0409A40000366E01AA
:04000005080001D11D
:00000001FF
